{
  "contractName": "Will",
  "abi": [
    {
      "inputs": [],
      "payable": true,
      "stateMutability": "payable",
      "type": "constructor"
    },
    {
      "constant": true,
      "inputs": [],
      "name": "fortune",
      "outputs": [
        {
          "internalType": "uint256",
          "name": "",
          "type": "uint256"
        }
      ],
      "payable": false,
      "stateMutability": "view",
      "type": "function"
    },
    {
      "constant": true,
      "inputs": [],
      "name": "owner",
      "outputs": [
        {
          "internalType": "address",
          "name": "",
          "type": "address"
        }
      ],
      "payable": false,
      "stateMutability": "view",
      "type": "function"
    },
    {
      "constant": false,
      "inputs": [
        {
          "internalType": "address payable",
          "name": "wallet",
          "type": "address"
        },
        {
          "internalType": "uint256",
          "name": "amount",
          "type": "uint256"
        }
      ],
      "name": "setInheritance",
      "outputs": [],
      "payable": false,
      "stateMutability": "nonpayable",
      "type": "function"
    },
    {
      "constant": false,
      "inputs": [],
      "name": "hasDeceased",
      "outputs": [],
      "payable": false,
      "stateMutability": "nonpayable",
      "type": "function"
    },
    {
      "constant": false,
      "inputs": [
        {
          "internalType": "address",
          "name": "check",
          "type": "address"
        }
      ],
      "name": "isOwner",
      "outputs": [
        {
          "internalType": "bool",
          "name": "success",
          "type": "bool"
        }
      ],
      "payable": false,
      "stateMutability": "nonpayable",
      "type": "function"
    }
  ],
  "bytecode": "0x6080604052336000806101000a81548173ffffffffffffffffffffffffffffffffffffffff021916908373ffffffffffffffffffffffffffffffffffffffff160217905550346001819055506000600260006101000a81548160ff0219169083151502179055506104a5806100756000396000f3fe608060405234801561001057600080fd5b50600436106100575760003560e01c8063177de89c1461005c5780632f54bf6e1461007a57806388d51594146100d65780638da5cb5b14610124578063eddcca991461016e575b600080fd5b610064610178565b6040518082815260200191505060405180910390f35b6100bc6004803603602081101561009057600080fd5b81019080803573ffffffffffffffffffffffffffffffffffffffff16906020019092919050505061017e565b604051808215151515815260200191505060405180910390f35b610122600480360360408110156100ec57600080fd5b81019080803573ffffffffffffffffffffffffffffffffffffffff169060200190929190803590602001909291905050506101e8565b005b61012c610296565b604051808273ffffffffffffffffffffffffffffffffffffffff1673ffffffffffffffffffffffffffffffffffffffff16815260200191505060405180910390f35b6101766102bb565b005b60015481565b60008060009054906101000a900473ffffffffffffffffffffffffffffffffffffffff1673ffffffffffffffffffffffffffffffffffffffff168273ffffffffffffffffffffffffffffffffffffffff1614156101de57600190506101e3565b600090505b919050565b60038290806001815401808255809150509060018203906000526020600020016000909192909190916101000a81548173ffffffffffffffffffffffffffffffffffffffff021916908373ffffffffffffffffffffffffffffffffffffffff1602179055505080600460008473ffffffffffffffffffffffffffffffffffffffff1673ffffffffffffffffffffffffffffffffffffffff168152602001908152602001600020819055505050565b6000809054906101000a900473ffffffffffffffffffffffffffffffffffffffff1681565b6000809054906101000a900473ffffffffffffffffffffffffffffffffffffffff1673ffffffffffffffffffffffffffffffffffffffff163373ffffffffffffffffffffffffffffffffffffffff161461031457600080fd5b6001600260006101000a81548160ff021916908315150217905550610337610339565b565b60011515600260009054906101000a900460ff1615151461035957600080fd5b60008090505b60038054905081101561046d576003818154811061037957fe5b9060005260206000200160009054906101000a900473ffffffffffffffffffffffffffffffffffffffff1673ffffffffffffffffffffffffffffffffffffffff166108fc60046000600385815481106103ce57fe5b9060005260206000200160009054906101000a900473ffffffffffffffffffffffffffffffffffffffff1673ffffffffffffffffffffffffffffffffffffffff1673ffffffffffffffffffffffffffffffffffffffff168152602001908152602001600020549081150290604051600060405180830381858888f1935050505015801561045f573d6000803e3d6000fd5b50808060010191505061035f565b5056fea265627a7a72315820d0723ac3ae7228b4d749d9adce58e395ee1e637f6082b1edf97e0704a18d3b9464736f6c63430005110032",
  "source": "//pragma solidity ^0.5.7;\r\npragma solidity ^0.5.17;\r\n\r\ncontract Will {\r\n    address public owner; //tạo biến\r\n    uint public fortune;\r\n    bool deceased;\r\n    //tạo constructor\r\n    // hàm khởi tạo\r\n    constructor() payable public { //payable cho phép F gửi và nhận ether(special)\r\n        owner = msg.sender;  // đại diện cho địa chỉ được gọi tới để thực thi hợp đồng\r\n        fortune = msg.value; //thông báo ta biết bao nhiêu ether được gửi\r\n        deceased =false; // granba vẫn chua die\r\n    }\r\n\r\n    //modifiers in solidity\r\n    //tạo modifier để người cos thể gọi tới hợp đồng này chỉ là chủ sở hữu\r\n    modifier onlyOwner{\r\n        require(msg.sender==owner); //bắt buộc message center phải bằng owner/ require như câu điều kiện\r\n        _;//bảo hàm tiếp tục, như hàm next();\r\n\r\n    }\r\n    //tạo modifier so that we only allocate funds if frieand's gramp deceased\r\n      modifier mustBeDeceased{\r\n        require(deceased==true);\r\n        _;\r\n    }\r\n\r\n    // tạo list để lưu trữ các địa chỉ của những người thừa kế ethereum\r\n    address payable[] familyWallets;// để danh sách này có thể payable \r\n        //map through inherritance\r\n    mapping(address=>uint) inheritance ;// khai báo biến inheritance dạng map/ key store value\r\n        //set inheritance cho mỗi địa chỉ address\r\n    function setInheritance(address payable wallet, uint amount) public {\r\n        // add wallet to family\r\n        familyWallets.push(wallet);\r\n        inheritance[wallet] = amount;\r\n    }\r\n    //pay each family member dựa vào cái danh sách ví đã lưu\r\n    function payout() private mustBeDeceased {\r\n        for(uint i=0;i<familyWallets.length;i++) {\r\n            familyWallets[i].transfer(inheritance[familyWallets[i]]);\r\n            //transfering the fund from contract address to recive address\r\n        }\r\n    }\r\n    //oracle simulated switch\r\n    function hasDeceased() public onlyOwner {\r\n        deceased = true;\r\n        payout();\r\n    }\r\n\r\n    function isOwner(address check) public returns (bool success) {\r\n        if(check==owner)\r\n        return true;\r\n        return false;\r\n    }\r\n}",
  "sourcePath": "F:\\Dapp\\inheritance\\src\\contracts\\Will.sol",
  "compiler": {
    "name": "solc",
    "version": "0.5.17+commit.d19bba13.Emscripten.clang"
  },
  "schemaVersion": "3.4.7",
  "updatedAt": "2022-06-15T02:01:19.657Z",
  "networkType": "ethereum",
  "devdoc": {
    "methods": {}
  },
  "userdoc": {
    "methods": {}
  }
}